S0240000736D6172745F686F6D655F6175746F6D6174696F6E5F73797374656D2E737265632D
S11300000C942A000C943F000C943F000C943F0085
S11300100C943F000C943F000C943F000C943F0060
S11300200C943F000C943F000C943F000C943F0050
S11300300C943F000C943F000C943F000C943F0040
S11300400C943F000C943F000C943F000C943F0030
S11300500C943F0011241FBECFE5D8E0DEBFCDBF16
S113006011E0A0E6B0E0E0EAF3E102C005900D92F1
S1130070AE35B107D9F70E9423050C94CE090C9430
S11300800000813059F018F0823079F014C087B143
S1130090806487B987B18F7787B90DC087B18F7BAB
S11300A087B987B18F7787B906C087B1806487B96C
S11300B087B1806887B986B18F7D86B986B18F7D17
S11300C086B986B1877F86B986B1816086B986B1E3
S11300D0826086B986B1846086B986B1806886B943
S11300E0089561157105E9F08032D8F497B1907ED6
S11300F097B997B1892B87B986B1806486B980E0B6
S113010090E001C00196349904C0803523EC920735
S1130110C8F386B1806186B984B195B1FB0191833E
S113012080830895843008F07EC0683008F07BC076
S1130130423008F078C0813019F130F08230E1F1BA
S1130140833009F455C00895442319F0413069F00F
S113015008952AB381E090E002C0880F991F6A9540
S1130160E2F7809582238ABB08952AB381E090E068
S113017002C0880F991F6A95E2F7822B8ABB089503
S1130180442319F0413069F0089527B381E090E0E9
S113019002C0880F991F6A95E2F78095822387BB76
S11301A0089527B381E090E002C0880F991F6A95F3
S11301B0E2F7822B87BB0895442319F0413069F09C
S11301C0089524B381E090E002C0880F991F6A95D6
S11301D0E2F78095822384BB089524B381E090E004
S11301E002C0880F991F6A95E2F7822B84BB089599
S11301F0442319F0413069F0089521B381E090E07F
S113020002C0880F991F6A95E2F78095822381BB0B
S1130210089521B381E090E002C0880F991F6A9588
S1130220E2F7822B81BB0895843008F07EC06830E9
S113023008F07BC0423008F078C0813019F130F00A
S11302408230E1F1833009F455C00895442319F054
S1130250413069F008952BB381E090E002C0880F2B
S1130260991F6A95E2F7809582238BBB08952BB37F
S113027081E090E002C0880F991F6A95E2F7822B13
S11302808BBB0895442319F0413069F0089528B3D5
S113029081E090E002C0880F991F6A95E2F780958B
S11302A0822388BB089528B381E090E002C0880FC0
S11302B0991F6A95E2F7822B88BB0895442319F0AD
S11302C0413069F0089525B381E090E002C0880FC1
S11302D0991F6A95E2F78095822385BB089525B31B
S11302E081E090E002C0880F991F6A95E2F7822BA3
S11302F085BB0895442319F0413069F0089522B371
S113030081E090E002C0880F991F6A95E2F780951A
S1130310822382BB089522B381E090E002C0880F5B
S1130320991F6A95E2F7822B82BB08958430C0F549
S11303306830B0F54115510599F1813089F028F004
S11303408230C9F0833011F1089589B390E002C07E
S1130350959587956A95E2F78170FA0180830895EF
S113036086B390E002C0959587956A95E2F781700F
S1130370FA018083089583B390E002C09595879530
S11303806A95E2F78170FA018083089580B390E062
S113039002C0959587956A95E2F78170FA0180838A
S11303A008958430A8F5683098F5813089F028F0F4
S11303B08230C9F0833011F108952BB381E090E0CD
S11303C002C0880F991F6A95E2F782278BBB0895B4
S11303D028B381E090E002C0880F991F6A95E2F784
S11303E0822788BB089525B381E090E002C0880F7E
S11303F0991F6A95E2F7822785BB089522B381E0AD
S113040090E002C0880F991F6A95E2F7822782BBA9
S113041008958430A8F5683098F5813089F028F083
S11304208230C9F0833011F108952BB381E090E05C
S113043002C0880F991F6A95E2F7822B8BBB08953F
S113044028B381E090E002C0880F991F6A95E2F713
S1130450822B88BB089525B381E090E002C0880F09
S1130460991F6A95E2F7822B85BB089522B381E038
S113047090E002C0880F991F6A95E2F7822B82BB35
S1130480089540E065E082E00E94920040E064E06C
S113049082E00E94920040E063E082E00E949200C9
S11304A040E062E082E00E94920065E082E00E9407
S11304B0090264E082E00E94090263E082E00E9493
S11304C0090262E082E00E94090241E067E083E001
S11304D00E94920041E066E083E00E94920041E0C5
S11304E064E083E00E94920041E063E083E00E94C4
S11304F0920041E067E083E00E94140141E066E07D
S113050083E00E94140141E064E083E00E9414014E
S113051041E063E083E00E94140108956F927F92AA
S11305208F929F92AF92BF92CF92DF92EF92FF92FF
S11305300F931F93CF93DF93CDB7DEB7A1970FB679
S1130540F894DEBF0FBECDBF009709F480C05C01F4
S113055083E08D8F8E8F8F8F88A397E0998F96E09D
S11305609A8F24E02B8F8C8F92E09D8B9E8B9F8B98
S1130570988F35E0398B2A8B8B8B9C8B80E1E0E65E
S1130580F0E0DE01119601900D928A95E1F78FEF6C
S1130590F501808300E058C0C02ED12CE9E1F0E0E1
S11305A0EC0FFD1FEC0DFD1D8080EDE1F0E0EC0F84
S11305B0FD1FEC0DFD1D908040E0682D892D0E94EB
S11305C0140110E037C0E12EF12CE1E1F0E0EC0F72
S11305D0FD1FEE0DFF1D7080E5E1F0E0EC0FFD1F47
S11305E0EE0DFF1D6080AE014F5D5F4F672D862DC0
S11305F00E94960189A181111CC007C0AE014F5D04
S11306005F4F672D862D0E94960189A18823B1F33F
S1130610EE0CFF1CEE0CFF1C81E090E08C0F9D1F84
S1130620E80EF91EF701EC0DFD1D8081F5018083B4
S113063003C01F5F143038F241E0682D892D0E94F9
S11306401401143020F00F5F043008F4A5CFA196F4
S11306500FB6F894DEBF0FBECDBFDF91CF911F91CF
S11306600F91FF90EF90DF90CF90BF90AF909F904D
S11306708F907F906F900895CF93C82F80FD06C010
S113068040E060E081E00E94140105C041E060E0C8
S113069081E00E941401C1FD06C040E061E081E0F8
S11306A00E94140105C041E061E081E00E94140150
S11306B0C2FD06C040E062E081E00E94140105C072
S11306C041E062E081E00E941401C3FD06C040E005
S11306D064E081E00E94140105C041E064E081E02F
S11306E00E941401CF91089541E062E080E00E94ED
S11306F014018FE99FE00197F1F700C0000040E08A
S113070062E080E00E9414010895CF93C82F41E075
S113071063E080E00E9414018C2F82958F700E9408
S11307203C030E9474038C2F0E943C030E947403B8
S1130730CF910895CF93C82F40E063E080E00E94FA
S113074014018C2F82958F700E943C030E947403C5
S11307508C2F0E943C030E947403CF91089541E0C2
S113076063E080E00E94920041E062E080E00E9449
S1130770920041E060E081E00E94920041E061E08B
S113078081E00E94920041E062E081E00E949200D8
S113079041E064E081E00E9492002FE785EB91E064
S11307A0215080409040E1F700C0000040E063E049
S11307B080E00E94140182E00E943C030E947403C2
S11307C088E20E949A0320EF2A95F1F78FE00E94B5
S11307D09A0380EF8A95F1F781E00E949A038FE3F0
S11307E09FE10197F1F700C0000086E00E949A03A0
S11307F008950F931F93CF93009729F40CC00E9480
S11308008503CF5F02C08C01C0E0F801EC0FF11D3D
S113081080818111F4CFCF911F910F91089581E0D0
S11308200E949A038FE39FE10197F1F700C0000053
S1130830089541E00E94920008950E94D101089514
S1130840CF92DF92EF92FF920F931F93CF93DF9398
S1130850CDB7DEB769970FB6F894DEBF0FBECDBF34
S11308608CE0E1ECF0E0DE01119601900D928A95A6
S1130870E1F70E94F2060E9441020E94AF0380E762
S113088090E00E94F90380E790E00E94180700E0DE
S113089079C0CE0149960E948E02898D8F3F09F45A
S11308A053C090E0C0976C01990FEE08FF0810E068
S11308B029C0CE0149960E948E02298D2F3F11F145
S11308C0D701C601880F991FAA1FBB1F6C017D01A8
S11308D0CC0CDD1CEE1CFF1CCC0CDD1CEE1CFF1C28
S11308E08C0D9D1DAE1DBF1D30E0690140E3C41A8F
S11308F0D1080D2C000CEE08FF08C80ED91EEA1E04
S1130900FB1E1F5F1330A8F28DEAC8168BE1D806D0
S1130910E104F10489F40E940F0481E890E00E944C
S1130920F9039FEF2DE349E4915020404040E1F763
S113093000C0000081E037C00F5F0E940F048FE801
S113094090E00E94F9031EC05F9BA3CFCE010D96D9
S11309500E942E078D85882309F49BCFBE016F5F0B
S11309607F4FCE010D960E94C509892B31F482EA8E
S113097090E00E94180782E016C00F5F8FE890E0B5
S11309800E941807033008F484CF81EB90E00E94A2
S1130990F90381EB90E00E94180741E066E082E0F1
S11309A00E94140180E069960FB6F894DEBF0FBE72
S11309B0CDBFDF91CF911F910F91FF90EF90DF900A
S11309C0CF900895CF93DF9300D0CDB7DEB7BE01AB
S11309D06F5F7F4F80E00E94710069817A8180E0BF
S11309E090E00E945C082AE037ED43E250E40E9464
S11309F00E0920E030E04AE754E40E940E0920E0AA
S1130A0030E040E85AE30E940E090E942D082AE0D3
S1130A1030E040E050E00E948F092531310530F488
S1130A2040E062E083E00E94140108C02D313105EA
S1130A3028F041E062E083E00E9414010F900F90DF
S1130A40DF91CF910895CF93DF9300D0CDB7DEB778
S1130A5082E00E9441000E94F2060E9468060E9401
S1130A602004182F41E060E082E00E94920041E0FF
S1130A7061E082E00E94920041E060E082E00E9436
S1130A80140140E061E082E00E94140141E062E070
S1130A9083E00E94920041E066E082E00E949200BE
S1130AA066E080E00E94190467E080E00E94190477
S1130AB065E081E00E94190466E081E00E94190467
S1130AC067E081E00E94190441E063E081E00E9454
S1130AD0920041E065E083E00E9492000E94930648
S1130AE0111101C0FFCF123009F05CC08DEC90E011
S1130AF00E9418070E94E2045F9BFCCFCE0102967D
S1130B000E9410078A81813329F466E080E00E9404
S1130B101D04F0CF823329F467E080E00E941D04B5
S1130B20E9CF833329F465E081E00E941D04E2CF1C
S1130B30843329F466E081E00E941D04DBCF853311
S1130B4029F467E081E00E941D04D4CF863399F430
S1130B5086EF90E00E941807CE0102960E941007CB
S1130B600E9489068A81880F982F990F990F890FFF
S1130B700E947506BFCF873349F440E050E060E23D
S1130B8071E482E390E00E94A606B4CF883309F0B2
S1130B90B1CF40E050E060EF70E482E390E00E9467
S1130BA0A606A8CF113009F09BCF0E940F0481E163
S1130BB091E00E94F903AE014F5F5F4F66E080E071
S1130BC00E9496018981813021F48EE191E00E9496
S1130BD0F903AE014F5F5F4F67E080E00E9496012A
S1130BE08981813021F487E291E00E94F903AE010A
S1130BF04F5F5F4F65E081E00E94960189818130FB
S1130C0021F480E391E00E94F903AE014F5F5F4F4E
S1130C1066E081E00E9496018981813021F489E3B4
S1130C2091E00E94F903AE014F5F5F4F67E081E0FE
S1130C300E9496018981813021F482E491E00E942E
S1130C40F9030E94E204CE0102960E948E028A8178
S1130C508F3FB9F3813329F466E080E00E941D04DC
S1130C603FCF823329F467E080E00E941D0438CF2F
S1130C70833329F465E081E00E941D0431CF84337D
S1130C8029F466E081E00E941D042ACF853329F40B
S1130C9067E081E00E941D0423CF863309F020CF52
S1130CA00E940F048BE491E00E94F903CE010296A6
S1130CB00E948E028A818F3FC9F30E9489068A812D
S1130CC0880F982F990F990F890F0E94750608CFE6
S1130CD083B7806483BF83B7886083BF83B78F7E05
S1130CE083BF83B7806283BF0895853688F4982FC5
S1130CF080E064E670E00E947B0961506CBF83B7BA
S1130D00816083BF83B7826083BF83B78B7F83BFD8
S1130D10089583B78E7F83BF83B78D7F83BF83B7E7
S1130D208B7F83BF08958FB58E7F8FBD8FB5826013
S1130D308FBD8EB588608EBD8EB580618EBD8FB53A
S1130D408F7B8FBD8FB580688FBD0895CF92DF9262
S1130D50EF92FF92CF93DF93EC016A017B0120E0D5
S1130D6030E048EC52E4C701B6010E94B6071816F9
S1130D7094F19E0140E050E060E970ED83E090E082
S1130D800E948F092150310937BD26BD66B577B55C
S1130D906F5F7F4F80E090E00E945C08A70196019E
S1130DA00E940E0920E030E048EC52E40E94BB07A8
S1130DB020E030E040E85FE30E9449070E942D08EC
S1130DC07BBD6ABD8EB581608EBD8EB582608EBDE1
S1130DD08EB58B7F8EBDDF91CF91FF90EF90DF902A
S1130DE0CF90089587E689B98BB18D7F8BB98AB18D
S1130DF08F778AB98AB18F7B8AB98AB18F7D8AB994
S1130E008AB18B7F8AB986E880BD8AB180618AB94C
S1130E108AB188608AB908955D9BFECF8CB9089524
S1130E20009729F05F9BFECF2CB1FC01208308952D
S1130E300F931F93CF93009729F40CC00E940C07C3
S1130E40CF5F02C08C01C0E0F801EC0FF11D80817E
S1130E508111F4CFCF911F910F910895EF92FF92DA
S1130E601F93CF93DF93009771F07C0110E0E701AB
S1130E70C10FD11DCE010E9410079881933211F049
S1130E801F5FF5CF1882DF91CF911F91FF90EF90F4
S1130E9008955058BB27AA270E9461070C94D408D0
S1130EA00E94C60838F00E94CD0820F039F49F3F14
S1130EB019F426F40C94C3080EF4E095E7FB0C94A3
S1130EC0BD08E92F0E94E50858F3BA1762077307B3
S1130ED08407950720F079F4A6F50C9407090EF41D
S1130EE0E0950B2EBA2FA02D0B01B90190010C0136
S1130EF0CA01A0011124FF27591B99F0593F50F44E
S1130F00503E68F11A16F040A22F232F342F4427A5
S1130F10585FF3CF469537952795A795F04053959D
S1130F20C9F77EF41F16BA0B620B730B840BBAF06D
S1130F309150A1F0FF0FBB1F661F771F881FC2F7D8
S1130F400EC0BA0F621F731F841F48F487957795EC
S1130F506795B795F7959E3F08F0B0CF9395880FA6
S1130F6008F09927EE0F9795879508950E949908A0
S1130F7008F481E008950E94CF070C94D4080E94DD
S1130F80CD0858F00E94C60840F029F45F3F29F0CC
S1130F900C94BD0851110C9408090C94C3080E94C8
S1130FA0E50868F39923B1F3552391F3951B550B89
S1130FB0BB27AA2762177307840738F09F5F5F4F28
S1130FC0220F331F441FAA1FA9F335D00E2E3AF067
S1130FD0E0E832D091505040E695001CCAF72BD07F
S1130FE0FE2F29D0660F771F881FBB1F26173707D0
S1130FF04807AB07B0E809F0BB0B802DBF01FF2702
S113100093585F4F3AF09E3F510578F00C94BD0819
S11310100C9408095F3FE4F3983ED4F386957795E2
S11310206795B795F7959F5FC9F7880F911D9695BA
S1131030879597F90895E1E0660F771F881FBB1F16
S1131040621773078407BA0720F0621B730B840BC3
S1131050BA0BEE1F88F7E09508950E94ED0888F01A
S11310609F5798F0B92F9927B751B0F0E1F0660F68
S1131070771F881F991F1AF0BA95C9F714C0B130A9
S113108091F00E940709B1E008950C940709672FB5
S1131090782F8827B85F39F0B93FCCF386957795D8
S11310A06795B395D9F73EF49095809570956195C1
S11310B07F4F8F4F9F4F0895E89409C097FB3EF4EC
S11310C090958095709561957F4F8F4F9F4F992391
S11310D0A9F0F92F96E9BB279395F695879577950F
S11310E06795B795F111F8CFFAF4BB0F11F460FFCF
S11310F01BC06F5F7F4F8F4F9F4F16C0882311F027
S113110096E911C0772321F09EE8872F762F05C03A
S1131110662371F096E8862F70E060E02AF09A95D5
S1131120660F771F881FDAF7880F9695879597F9CA
S11311300895990F0008550FAA0BE0E8FEEF161664
S11311401706E807F907C0F012161306E407F507B7
S113115098F0621B730B840B950B39F40A2661F02B
S1131160232B242B252B21F408950A2609F4A140CE
S1131170A6958FEF811D811D089597F99F6780E8DB
S113118070E060E008959FEF80EC089500240A94D5
S11311901616170618060906089500240A9412164E
S11311A01306140605060895092E0394000C11F481
S11311B0882352F0BB0F40F4BF2B11F460FF04C02E
S11311C06F5F7F4F8F4F9F4F089557FD9058440F87
S11311D0551F59F05F3F71F04795880F97FB991F92
S11311E061F09F3F79F0879508951216130614064F
S11311F0551FF2CF4695F1DF08C0161617061806DC
S1131200991FF1CF86957105610508940895E894B6
S1131210BB2766277727CB0197F908950E942109F8
S11312200C94D4080E94C60838F00E94CD0820F01F
S1131230952311F00C94BD080C94C30811240C944C
S113124008090E94E50870F3959FC1F3950F50E0DB
S1131250551F629FF001729FBB27F00DB11D639F64
S1131260AA27F00DB11DAA1F649F6627B00DA11D0A
S1131270661F829F2227B00DA11D621F739FB00DB0
S1131280A11D621F839FA00D611D221F749F332720
S1131290A00D611D231F849F600D211D822F762FB9
S11312A06A2F11249F5750409AF0F1F088234AF096
S11312B0EE0FFF1FBB1F661F771F881F9150504002
S11312C0A9F79E3F510580F00C94BD080C940809C1
S11312D05F3FE4F3983ED4F3869577956795B79589
S11312E0F795E7959F5FC1F7FE2B880F911D9695A3
S11312F0879597F9089597FB072E16F4009407D065
S113130077FD09D00E94B10907FC05D03EF4909501
S113131081959F4F0895709561957F4F0895A1E23F
S11313201A2EAA1BBB1BFD010DC0AA1FBB1FEE1F5B
S1131330FF1FA217B307E407F50720F0A21BB30BA6
S1131340E40BF50B661F771F881F991F1A9469F722
S113135060957095809590959B01AC01BD01CF017E
S11313600895AA1BBB1B51E107C0AA1FBB1FA617E8
S1131370B70710F0A61BB70B881F991F5A95A9F73A
S113138080959095BC01CD010895FB01DC018D9100
S1131390019080190110D9F3990B0895F894FFCFA7
S11313A03738392F3435362A3132332D63303D2BDB
S11313B0456E7465722070617373776F72643A203E
S11313C00057656C636F6D65205573657221005716
S11313D0726F6E672E2054727920416761696E20A6
S11313E0200057656C636F6D652041646D696E21E3
S11313F00053797374656D204C6F636B646F776E03
S11314000041646D696E473942354D38006C616D39
S1131410707328313A36292020206F70656E20645D
S11314206F6F722837292020636C6F736520646F97
S11314306F72283829002020656E746572207065EB
S11314407263656E7461676528303A3130293A20D9
S1131450006C616D707328313A36292020004C45A8
S11314604431206F6E20004C454432206F6E2000C2
S11314704C454433206F6E20004C454434206F6E3D
S113148020004C454435206F6E2000656E746572F3
S11114902070657263656E746167653A2000B2
S9030000FC
